:020000040800F2
:1000000040080020812E00087D0500087F050008BB
:1000100083050008870500088B0500080000000024
:100020000000000000000000000000008F05000834
:10003000910500080000000093050008DD3A000863
:100040009B2E00089B2E00089B2E00089B2E00086C
:100050009B2E00089B2E00089B2E00089B2E00085C
:100060009B2E00089B2E00089B2E00089B2E00084C
:100070009B2E00089B2E00089B2E00089B2E00083C
:100080009B2E00089B2E00089B2E00089B2E00082C
:100090009B2E00089B2E00089B2E00089B2E00081C
:1000A0009B2E00089B2E00089B2E00089B2E00080C
:1000B0009B2E000843300008833000089B2E000868
:1000C0009B2E00089B2E00089B2E00089B2E0008EC
:1000D0009B2E0008C93C000819320008133D000897
:1000E0009B2E00089B2E00089B2E000800F002F8B3
:1000F00000F042F80AA090E8000C82448344AAF180
:100100000107DA4501D100F037F8AFF2090EBAE87D
:100110000F0013F0010F18BFFB1A43F0010318473B
:100120002447000044470000103A24BF78C878C133
:10013000FAD8520724BF30C830C144BF04680C60ED
:10014000704700000023002400250026103A28BF35
:1001500078C1FBD8520728BF30C148BF0B60704739
:10016000642903F08986732903F093870020704780
:100170001FB51FBD10B510BD03F0A6FF1146FFF758
:10018000F7FF00F07FF803F0C4FF03B4FFF7F2FFBE
:1001900003BC03F0A5FC000000200DE000BFCD492A
:1001A000098801F040010029F9D0CB49095CC94A0E
:1001B000121D1180411CC8B2C84909788842EDDB84
:1001C000704710B5C6A003F0D9FD4FF4967003F048
:1001D00052FCC5A1C54803F08BFE0446C0A003F045
:1001E000CDFD4FF4967003F046FCBFA1BF4803F06D
:1001F0007FFE044602F0C8FEC4B90120BC49086075
:100200004FF4967003F037FC4FF4967003F033FC14
:100210004FF4967003F02FFC4FF4967003F02BFC14
:100220000020B449C1F8A00102F0AEFEACA003F07A
:10023000A5FD4FF4967003F01EFC02F0A5FEAAA1E6
:10024000AA4803F055FE044674B90120AA49086083
:100250004FF4967003F00FFC4FF4967003F00BFC14
:100260000020A649C1F8A001A5A003F087FD4FF426
:10027000967003F000FC00209F491C39086002F0D2
:1002800083FE10BD8CB000BFA04903C9CDE90A01AF
:100290000020089009900690079014229CA101A8C4
:1002A00003F038FE03F0AAFB03F012FC03F0F4FAAB
:1002B00002F006FE02F02EFE03F0A6FA4FF41650EE
:1002C00003F039FC4FF4165003F08AFC4FF416503B
:1002D00002F018FF40F27121072002F043FEFFF701
:1002E00070FF41F61F4140F2E73002F051FE41F647
:1002F0001F4140F2E73002F078FE02F0FAFF03F00F
:10030000C4F803F0CFF8E3E08648407B86490870E4
:100310008448C07B8549087003F03AFB0446844951
:10032000204604F0BFF9054604F09CF981490870A5
:100330007D48007808B9012000E000207B49097859
:1003400009B9012100E00021084300284ED0002017
:100350006749083908606749C1F89C01012003F02A
:100360008AFB01206249091F0860302003F01EFA51
:10037000032003F01BFA0C2003F018FA012003F00D
:1003800015FA062003F012FA012003F074FB002096
:100390006549087065490870802003F007FA66A077
:1003A00003F056FA902003F001FA5F48027866A144
:1003B0000AA803F0EFFC0AA803F04AFA882003F029
:1003C000F5F95A48027864A108A803F0E3FC08A8EC
:1003D00003F03EFA982003F0E9F95648027862A14A
:1003E00006A803F0D7FC06A803F032FA802003F039
:1003F000DDF951A003F02CFA902003F0D7F94A4818
:10040000027851A10AA803F0C5FC0AA803F020FA5B
:10041000882003F0CBF9454802784FA108A803F0E3
:10042000B9FC08A803F014FA982003F0BFF941487A
:1004300002784DA106A803F0ADFC06A803F008FA67
:10044000394800780A2190FBF1F03030C0B28DF8C5
:100450000E003548007890FBF1F201FB12003030BD
:10046000C0B28DF80F003148007890FBF1F03030C9
:10047000C0B28DF810002D48007890FBF1F201FB1E
:1004800012003030C0B28DF811002A48007890FB7D
:10049000F1F03030C0B28DF812002648007890FBA1
:1004A000F1F201FB12003030C0B28DF8130001A947
:1004B00030A003F01FF84FF47A7003F0DCFA00204C
:1004C0002D49087003F08DF803F031F802F05CFD5F
:1004D0001AE7000000480040770100205D0000207E
:1004E00041540D0A000000004F4B00001301002092
:1004F000A081214200802142A0012142000021422E
:100500004154453026570D0A000000003C480008C1
:10051000363732453830323936313633313233348A
:10052000000000006000002000000020010000200A
:100530000000C8420200002020202020BBB7BEB32C
:10054000BCE0B2E200000000706D322E353A256446
:1005500075672F6D33000000706D3130203A2564CF
:1005600075672F6D33000000D4EBC9F9203A25647C
:1005700064420000380000005C000020704700BFAB
:10058000FEE700BFFEE700BFFEE700BFFEE77047E3
:100590007047704710B501F08FF9012001F011FA92
:1005A00000BF212001F0CBF90028FAD0102000F084
:1005B000EBFC022000F0D4FC002001F022FA002025
:1005C00001F031FA4FF4806001F024FA4FF4601129
:1005D000002001F0F9F9012001F002FA00BF3920F2
:1005E00001F0ADF90028FAD0022001F0FCF900BFBB
:1005F00001F002FA0828FBD101211D2001F0CAFAFE
:1006000010BD0CB50020019000906C48006840F4CB
:1006100080306A49086000BF6848006800F4003014
:1006200000900198401C0190009818B90198B0F50D
:10063000A06FF1D16148006800F4003010B10120D2
:10064000009001E0002000900098012843D15C4810
:10065000006840F010005A4908600846006820F021
:10066000030008600846006840F002000860534834
:1006700040685249486008464068486008464068FB
:1006800040F4806048600846406820F47C10486070
:100690000846406840F4E81048600846006840F0AA
:1006A0008070086000BF4548006800F000700028B6
:1006B000F9D04248406820F00300404948600846AD
:1006C000406840F00200486000BF3C48406800F0CD
:1006D0000C000828F9D10CBD10B5FFF792FF10BD32
:1006E00010B53648006840F00100344908600846FB
:1006F000406834490840314948600846006832493A
:1007000008402E4908600846006820F480200860F0
:100710000846406820F4FE0048604FF41F008860DF
:10072000FFF7DAFF4FF000602849086010BD10B5F0
:10073000002100200022214B5B6803F00C0121B155
:10074000042906D0082928D107E0214B214C236039
:1007500027E01F4B1F4C236023E0184B5B6803F41A
:100760007010164B5B6803F48032022303EB904059
:1007700022B9194B4343174C23600DE00F4B5B68C4
:1007800003F4003323B1144B4343124C236003E0C2
:100790000F4B43430F4C236003E00D4B0D4C236084
:1007A00000BF00BF054B5B68C3F303130B4CE15C58
:1007B000084B1B68CB40074C236010BD0010024063
:1007C000002002400000FFF8FFFFF6FE08ED00E009
:1007D00000127A000400002000093D0008000020FB
:1007E00031490143314A1160704770B5002100233F
:1007F0000F22C47804B32D4C246804F4E064C4F5DB
:10080000E064210AC1F10403CA40447804FA03F108
:100810008478144021430901254C0678A1550478B9
:1008200004F01F050124AC4005786D11AD0005F101
:10083000E025C5F8004109E0047804F01F05012413
:10084000AC401C4D0678761145F8264070BD1A4A1A
:100850000A400243154B1B1F1A60704739B1134AF7
:10086000121D12680243114B1B1D1A6006E00F4A4D
:10087000121D126882430D4B1B1D1A60704704281D
:1008800008D14FF0E021096941F004014FF0E02266
:10089000116107E04FF0E021096921F004014FF0F8
:1008A000E0221161704700000000FA050CED00E045
:1008B00000E400E080E100E080FFFF1F10B5044687
:1008C000FA48844208D10121401501F07DF9002148
:1008D000601501F079F917E0F548844208D101214B
:1008E000001501F071F90021201501F06DF90BE000
:1008F000F048844208D10121C80301F065F90021C4
:100900004FF4004001F060F910BD30B50246002000
:1009100000235068E84C20400D790C6844EA052417
:10092000204350609068E54C2040D1E902542C43AC
:100930004D7944EA450420439060D06A20F4700069
:100940000C7C641EE4B2234340EA0350D06230BD05
:1009500000210160017141718160C1600121017458
:10096000704721B1826842F00102826003E0826830
:1009700022F001028260704721B1826842F48072E5
:10098000826003E0826822F480728260704710B552
:100990000023CBB21AB144681C43446002E04468AF
:1009A0009C43446010BD816841F00801816070473C
:1009B000014600208A6802F008020AB1012000E026
:1009C00000207047816841F0040181607047014652
:1009D00000208A6802F004020AB1012000E0002031
:1009E000704721B1826842F4A002826003E082680D
:1009F00022F4A00282607047014600208A6802F457
:100A000080020AB1012000E00020704710B50A46BC
:100A100000210023416821F46041531E41EA433123
:100A2000416010BD21B1426842F40062426003E0BF
:100A3000426822F4006242607047F0B504460D46F9
:100A400000200021092D11DDE068A5F10A0606EB62
:100A50004607072606FA07F18843A5F10A0606EBC2
:100A6000460603FA06F10843E0600CE0206905EB56
:100A70004507072606FA07F1884305EB450603FA02
:100A800006F108432061072A0FDA606B561E06EB59
:100A900086071F2606FA07F18843561E06EB8606D0
:100AA00005FA06F10843606322E00D2A0FDA206B95
:100AB000D61F06EB86071F2606FA07F18843D61FC6
:100AC00006EB860605FA06F10843206310E0E06AAB
:100AD000A2F10D0606EB86071F2606FA07F18843EA
:100AE000A2F10D0606EB860605FA06F10843E06260
:100AF000F0BD21B1826842F48012826003E0826816
:100B000022F48012826070470146C86C80B2704740
:100B100066484C300068704721B1426842F48062F8
:100B2000426003E0426822F480624260704721B173
:100B3000426842F48052426003E0426822F48052EC
:100B4000426070470A460021816821F4E041114368
:100B50008160704721B1826842F40042826003E004
:100B6000826822F400428260704721B1826842F4B8
:100B70000212826003E0826822F4021282607047EF
:100B8000014600208A6802F400120AB1012000E048
:100B900000207047F0B504461546002000220026CC
:100BA000092911DDE068A1F10A0707EB470C0727C7
:100BB00007FA0CF29043A1F10A0707EB470703FA83
:100BC00007F21043E0600CE0206901EB410C0727BD
:100BD00007FA0CF2904301EB410703FA07F21043C6
:100BE0002061A06BC0F30156EF1C06F1010CA7EBCE
:100BF0000C0707EB870C1F2707FA0CF29043EF1C3A
:100C000006F1010CA7EB0C0707EB870701FA07F2C7
:100C10001043A063F0BD10B50A4600210023816B8C
:100C200021F44011531E41EA0351816310BD08B500
:100C3000002300930090009B0B440093009B1A60DC
:100C400008BD08B5024600200090009201F128007E
:100C5000009B184400900098006880B208BD0A46C6
:100C600000214168164B19401143416070474162B1
:100C7000826270470A460021416821F01F0111433A
:100C80004160704740B109490831096841F40001E9
:100C9000064A0832116007E004490831096821F466
:100CA0000001024A08321160704700000024014030
:100CB00000280140003C0140FFFEF0FFFDF7F1FF7E
:100CC000FFFD3FFF0246002013680B400BB10120DF
:100CD00000E000207047CA430260704770B50246CA
:100CE0000020002300240B125568CEB205EA06044A
:100CF00015681D4015B10CB1012000E0002070BD49
:100D000000220A12D34303607047000001684FF6C7
:100D1000FE72114001600021016041608160C1608C
:100D20008D49884208D18C490839496841F00F0142
:100D3000894A083A51608AE087491431884208D1CB
:100D400085490839496841F0F001834A083A516001
:100D50007DE081492831884208D17F4908394968B6
:100D600041F470617C4A083A516070E07A493C3144
:100D7000884208D178490839496841F47041764A77
:100D8000083A516063E074495031884208D1724991
:100D90000839496841F470216F4A083A516056E0B9
:100DA0006D496431884208D16B490839496841F47A
:100DB0007001694A083A516049E0674978318842D0
:100DC00008D165490839496841F07061624A083ABA
:100DD00051603CE06149884206D1011F096841F039
:100DE0000F01021F116032E05C491431884208D1C2
:100DF0005A49091F096841F0F001584A121F116051
:100E000025E056492831884208D15449091F09680C
:100E100041F47061514A121F116018E04F493C3192
:100E2000884208D14D49091F096841F470414B4A75
:100E3000121F11600BE049495031884207D14749E0
:100E4000091F096841F47021444A121F116070475C
:100E500010B50022026847F6F0739A430C6A8B685B
:100E600023430C6923434C6923438C692343CC6996
:100E700023434C6A23438C6A23431A430260CB68A2
:100E800043600B6883604B68C36010BD0021016044
:100E900041608160C160016141618161C161016244
:100EA00041628162704721B1026842F00102026032
:100EB00004E002684FF6FE731A40026070471AB1F0
:100EC00003680B43036002E003688B4303607047D1
:100ED000416070470146486880B270470146002073
:100EE000002201F080531BB11C4B083B1A6802E042
:100EF000194B083B1A6802EA01030BB1012000E01C
:100F00000020704700F0805119B11449091F086092
:100F100002E011490839486070470146002000226C
:100F200001F080531BB10D4B083B1A6802E00A4BDD
:100F3000083B1A6802EA01030BB1012000E000201F
:100F4000704700F0805119B10449091F086002E0A0
:100F5000014908394860704708000240080402400F
:100F600001460020FE4A106800F038000843106077
:100F70007047FB49096821F00801F94A11601146E0
:100F80000968014311607047F549096821F01001B3
:100F9000F34A116011460968014311607047F14836
:100FA000EF494860F04848607047EE48EC494860B7
:100FB000ED4848607047EA48006940F08000E84921
:100FC00008617047E648006940F08000E449086124
:100FD00070470420E249C96801F0010109B101200C
:100FE0000EE0DF49C96801F0040109B1022007E001
:100FF000DB49C96801F0100109B1032000E00420B9
:10100000704700B502460423FFF7E3FF034603E001
:10101000FFF7DFFF0346521E012B01D1002AF7D153
:1010200002B90523184600BD30B5044604254FF427
:101030003020FFF7E6FF0546042D17D1C8480069A8
:1010400040F00200C649086108464461006940F06A
:10105000400008614FF43020FFF7D3FF0546C04839
:10106000006941F6FD710840BD490861284630BD60
:1010700010B504244FF43020FFF7C3FF0446042CBE
:1010800016D1B748006940F00400B5490861084628
:10109000006940F0400008614FF43020FFF7B1FFD5
:1010A0000446AF48006941F6FB710840AC4908614D
:1010B000204610BD00B502460423FFF78AFF034611
:1010C00003E0FFF786FF0346521E012B01D1002AE1
:1010D000F7D102B90523184600BD10B504244FF41A
:1010E0003020FFF7E7FF0446042C16D19C48006926
:1010F00040F004009A4908610846006940F0400049
:1011000008614FF43020FFF7D5FF0446944800698A
:1011100041F6FB71084092490861204610BD00204D
:101120008F49C96901F0020109B1012000E00020E6
:10113000704730B5A5250424FFF7F1FF00B1002565
:101140004FF43020FFF75DFF0446042C3AD1854868
:1011500083498860844888600846006940F0200020
:1011600008610846006940F0400008614FF43020F3
:10117000FFF747FF0446042C1BD17948006941F66C
:10118000DF710840764908610846006940F01000A8
:10119000086176480580E002FFF733FF0446052C1E
:1011A00010D06F48006941F6EF7108406C49086142
:1011B00008E0052C06D06A48006941F6EF71084046
:1011C00067490861204630BD78B506460C460425BF
:1011D00000200090E802FFF714FF0546042D24D1FB
:1011E0005F48006940F001005D4908613480E80211
:1011F000FFF707FF0546042D10D1B01C0090200C0E
:1012000000990880E802FFF7FCFE05465448006993
:1012100041F6FE7108405249086106E050480069F5
:1012200041F6FE7108404E490861284678BD70B508
:1012300004460D460426F002FFF7E3FE0646042EA0
:1012400011D14748006940F00100454908612580F7
:10125000F002FFF7D6FE06464148006941F6FE71EE
:1012600008403F490861304670BD70B505460E46DE
:101270000424E002FFF7C5FE0446042C17D13948C8
:1012800037498860384888600846006940F0100097
:1012900008612E80E002FFF7B4FE0446052C06D05C
:1012A0002F48006941F6EF7108402D49086120463A
:1012B00070BD2DE9F04304464FF6FF763746B04641
:1012C000B1460425E443E6B2C4F30727C4F3074854
:1012D0004FEA1469E802FFF794FE0546042D49D150
:1012E00020481F498860204888600846006940F00F
:1012F00010000861FF2E06D01C4808300680E80266
:10130000FFF77FFE0546042D08D1FF2F06D01748B2
:101310000A300780E802FFF774FE0546042D0AD163
:10132000B8F1FF0F07D011480C30A0F80080E80298
:10133000FFF767FE0546042D0AD1B9F1FF0F07D06C
:101340000A480E30A0F80090E802FFF75AFE054662
:10135000052D0FD00248006941F6EF71084007E003
:101360000020024023016745AB89EFCD00F8FF1F45
:10137000664908612846BDE8F08330B50546042477
:101380004FF43020FFF73DFE0446042C41D1604865
:101390005E4988605F4888600846006940F0200028
:1013A00008610846006940F0400008614FF43020B1
:1013B000FFF727FE0446042C22D15448006941F669
:1013C000DF710840514908610846006940F010008B
:1013D00008611DB100205049088002E0A5204E4957
:1013E00008804FF43020FFF70CFE0446052C10D087
:1013F0004648006941F6EF7108404449086108E039
:10140000052C06D04148006941F6DF7108403F498C
:101410000861204630BDF0B505460E461746042447
:101420003B483A4988603B488860E002FFF7E9FDA5
:101430000446042C19D13548006940F010003349A6
:10144000086147F0F800304328433349891C08807D
:10145000E002FFF7D6FD0446052C06D02B480069B4
:1014600041F6EF710840294908612046F0BD274840
:10147000C069800870472548006A704700202349EA
:10148000096801F0200109B1012000E00020704747
:1014900029B11E4A126902431C4B1A6104E01B4A1F
:1014A00012698243194B1A617047014600200129D5
:1014B00008D1164AD26902F001020AB1012008E0FF
:1014C000002006E0114AD2680A400AB1012000E07B
:1014D000002070470D49C860704704200B49C96857
:1014E00001F0010109B101200EE00849C96801F0CD
:1014F000040109B1022007E00449C96801F01001A4
:1015000009B1032000E004207047000000200240E1
:1015100023016745AB89EFCD00F8FF1F10B50446E6
:10152000CC48844208D10121042000F04DFB002169
:10153000042000F049FB46E0C748844208D101215D
:10154000082000F041FB0021082000F03DFB3AE0BC
:10155000C248844208D10121102000F035FB00214F
:10156000102000F031FB2EE0BD48844208D101215B
:10157000202000F029FB0021202000F025FB22E0A4
:10158000B848844208D10121402000F01DFB002111
:10159000402000F019FB16E0B348844208D1012135
:1015A000802000F011FB0021802000F00DFB0AE0FC
:1015B000AE48844207D10121801500F005FB0021CF
:1015C000A01500F001FB10BD10B50121084600F088
:1015D000FBFA0021012000F0F7FA10BD2DE9F041DF
:1015E000024600250026002000230024002791F851
:1015F00003C00CF00F0591F803C00CF0100CBCF107
:10160000000F03D091F802C04CEA050591F800C024
:10161000BCF1000F31D0146800202BE04FF0010C1A
:101620000CFA00F3B1F800C00CEA03069E4220D188
:1016300083004FF00F0C0CFA03F7BC4305FA03FCD0
:101640004CEA040491F803C0BCF1280F06D14FF016
:10165000010C0CFA00FCC2F814C00AE091F803C0B7
:10166000BCF1480F05D14FF0010C0CFA00FCC2F898
:1016700010C0401C0828D1D31460B1F800C0BCF1E0
:10168000FF0F34DD546800202EE000F1080C4FF00D
:10169000010808FA0CF3B1F800C00CEA03069E42F8
:1016A00021D183004FF00F0C0CFA03F7BC4305FA6D
:1016B00003FC4CEA040491F803C0BCF1280F05D1E7
:1016C00000F1080C08FA0CF8C2F8148091F803C075
:1016D000BCF1480F07D100F1080C4FF0010808FADF
:1016E0000CF8C2F81080401C0828CED35460BDE826
:1016F000F0814FF6FF710180022181700421C170D9
:1017000070470246002093680B400BB1012000E0B7
:10171000002070470146886880B27047024600206A
:10172000D3680B400BB1012000E000207047014658
:10173000C86880B2704701617047416170470AB163
:10174000016100E041617047C16070474FF4803231
:101750000A438261816182618269826970470246BF
:101760000020434B18684FF68073184040EA02107F
:1017700008433F4B186070473E49C8617047F0B559
:101780000A46002300240021002500F00046B6F19F
:10179000004F02D1364EF16901E0354E7168C0F359
:1017A000034583B200F44016B6F5401F08D121F07E
:1017B00070612F4E766826F070662D4F7E6012E0C5
:1017C00000F48016B6F5801F06D1032606FA05F44C
:1017D000A14341F0706106E0460D360103FA06F6BA
:1017E000B14341F0706122B1460D360103FA06F6AD
:1017F000314300F00046B6F1004F02D11C4EF161BA
:1018000001E01B4E7160F0BD30B500228B071C0F4C
:101810000F2303FA04F2164B08338C1053F82430CC
:101820009343134C08348D1044F8253023468C1014
:1018300053F824308C07240F00FA04F423430C4C93
:1018400008348D1044F8253030BD0A49DC31086079
:101850007047000000080140000C014000100140EA
:101860000014014000180140001C0140002001400C
:1018700000000140000020420E49086070470D49F9
:10188000486070470B49886070474AF6AA200949AA
:10189000086070474CF6CC40064908607047014626
:1018A0000020044AD2680A400AB1012000E000206A
:1018B0007047000000300040DF48006840F0010041
:1018C000DD49086008464068DC490840DA4948605C
:1018D00008460068DA490840D749086008460068A9
:1018E00020F4802008600846406820F4FE0048602C
:1018F0004FF41F0088607047CF49096821F4803198
:10190000CD4A11601146096821F480211160B0F5BB
:10191000803F03D0B0F5802F0ED106E0C64909689C
:1019200041F48031C44A116007E0C349096841F4B9
:10193000A021C14A116000E000BF00BF704710B590
:1019400001460022002300204A11012A02D1BA4C8C
:10195000236806E0022A02D1B74C236A01E0B64CA4
:10196000636A01F01F02012494401C400CB1012065
:1019700000E0002010BD38B50020009000240025B4
:1019800000BF3120FFF7DBFF05460098401C0090A8
:101990000098B0F5A06F01D0002DF2D03120FFF7F4
:1019A000CEFF08B1012400E00024204638BD0146E6
:1019B0000020A14A106820F0F80040EAC100106041
:1019C0007047A04908607047024600209A4B58684B
:1019D00020F47C1042EA01031843974B586070478B
:1019E00098490866704701460020934A506820F0E5
:1019F00003000843506070478F48406800F00C00B7
:101A00007047014600208C4A506820F0F0000843DF
:101A10005060704701460020874A506820F4E0601B
:101A200008435060704701460020834A506820F404
:101A3000605040EAC1005060704729B17E4A527A36
:101A400002437D4B5A7204E07B4A527A82437A4BBE
:101A50005A7270477B49D8310860704701460020B0
:101A6000754A506820F44040084350607047002198
:101A7000714A20321170704A82F82010012802D079
:101A800004280AD104E001216B4A2032117005E0DC
:101A90000521694A2032117000E000BF00BF704785
:101AA0006949086070476449096A0143624A1162E2
:101AB0007047654944390860704730B500210022FD
:101AC000002400235C4D6D6805F00C0121B1042950
:101AD00005D0082923D105E05C4D056022E05B4D6F
:101AE00005601FE0544D6D6805F47012524D6D682D
:101AF00005F48034022505EB92421CB9544D554340
:101B000005600BE04C4D6D6805F400351DB1504D7E
:101B10005543056002E04D4D5543056002E04B4DD5
:101B2000056000BF00BF444D6D6805F0F001090974
:101B3000484D6B5C0568DD4045603F4D6D6805F4C0
:101B4000E061090A434D6B5C4568DD4085603A4DB4
:101B50006D6805F46051C90A3E4D6B5C4568DD4017
:101B6000C560354D6D6805F44041890B3A4D6B5C9D
:101B7000C568B5FBF3F5056130BD29B12E4A526940
:101B800002432D4B5A6104E02B4A526982432A4B8F
:101B90005A61704729B1284A92690243264B9A61DB
:101BA00004E0254A92698243234B9A61704729B128
:101BB000214AD2690243204BDA6104E01E4AD2690D
:101BC00082431D4BDA61704729B11B4AD268024338
:101BD000194BDA6004E0184AD2688243164BDA6087
:101BE000704729B1144A12690243134B1A6104E089
:101BF000114A12698243104B1A61704712494039E9
:101C0000086070470F49C86470470B49C871704736
:101C10000948406A40F080700749486270470146B1
:101C20000020054A92680A400AB1012000E0002025
:101C30007047014988727047001002400000FFF8A9
:101C4000FFFFF6FE000042428004424200127A008A
:101C500000093D00180000202800002010B50446AF
:101C6000FE48844208D10121C014FFF7ADFF0021D6
:101C7000E014FFF7A9FFC4E0B4F1804F08D10121BF
:101C80000846FFF7AEFF00210120FFF7AAFFB8E0EA
:101C9000F348844208D101210220FFF7A2FF00216E
:101CA0000220FFF79EFFACE0EE48844208D10121FC
:101CB0000420FFF796FF00210420FFF792FFA0E029
:101CC000E948844208D101210820FFF78AFF00215A
:101CD0000820FFF786FF94E0E448844208D1012100
:101CE0001020FFF77EFF00211020FFF77AFF88E029
:101CF000DF48844208D101212020FFF772FF002134
:101D00002020FFF76EFF7CE0DA48844208D10121F1
:101D10004014FFF759FF00216014FFF755FF70E0F2
:101D2000D548844209D10121C804FFF74DFF0021A5
:101D30004FF40020FFF748FF63E0D048844209D108
:101D400001210805FFF740FF00214FF48010FFF745
:101D50003BFF56E0CA48844209D101214805FFF7FC
:101D600033FF00214FF40010FFF72EFF49E0C54874
:101D7000844208D101214020FFF733FF0021402099
:101D8000FFF72FFF3DE0C048844208D101218020A9
:101D9000FFF727FF00218020FFF723FF31E0BB483A
:101DA000844208D101218015FFF71BFF0021A015F7
:101DB000FFF717FF25E0B648844209D10121080446
:101DC000FFF702FF00214FF48030FFF7FDFE18E01F
:101DD000B048844209D101214804FFF7F5FE0021F3
:101DE0004FF40030FFF7F0FE0BE0AB48844208D11F
:101DF00001218804FFF7E8FE00214FF48020FFF75F
:101E0000E3FE10BD00220288944B98420ED0994BFD
:101E100098420BD0B0F1804F08D0914B984205D03A
:101E2000904B984202D0904B984204D14FF68F735A
:101E30001A404B881A438D4B984207D08C4B9842DE
:101E400004D04FF6FF431A40CB881A4302808B8898
:101E500083850B880385814B98420BD0854B984234
:101E600008D08B4B984205D08A4B984202D08A4BBF
:101E7000984201D10B7A038601238382704770B5A3
:101E8000002400220023058C4FF6FE7635400584A1
:101E9000028C8388048B4FF68F752C40B51E2C4026
:101EA0000D882C43751E2A400D892A434D882A43EC
:101EB0006A4DA8420BD06F4DA84208D0744DA8427D
:101EC00005D0744DA84202D0734DA84213D14FF6ED
:101ED000F7752A404D892A434FF6FB752A408D88B5
:101EE0002A434FF6FF652B404FF6FF552B408D8957
:101EF0002B43CD892B4383800483CD888586028440
:101F000070BD70B5002400220023058C4FF6EF76DB
:101F100035400584028C8388048B48F6FF752C407D
:101F20004FF6FF452C400D884FF6FF7606EA052553
:101F30002C434FF6DF752A400D8906EA05152A4322
:101F40004D8806EA05152A43444DA84202D0494D62
:101F5000A8421DD14FF67F752A404D894FF6FF7676
:101F600006EA05152A434FF6BF752A408D8806EA12
:101F700005152A434FF6FF352B404FF2FF752B40D6
:101F80008D8906EA85052B43CD8906EA85052B4315
:101F900083800483CD880587028470BD70B50024DA
:101FA00000220023058C4FF6FF6635400584028C25
:101FB0008388848B4FF68F752C404FF6FC752C4030
:101FC0000D882C434FF6FF552A400D894FF6FF76BA
:101FD00006EA05252A434D8806EA05252A431F4DB2
:101FE000A84202D0234DA8421DD14FF2FF752A40CE
:101FF0004D894FF6FF7606EA05252A434FF6FF3551
:102000002A408D8806EA05252A434EF6FF752B40A7
:102010004DF6FF752B408D8906EA05152B43CD89BA
:1020200006EA05152B4383808483CD888587028447
:1020300070BD70B5002200230024058C4EF6FF769B
:1020400035400584038C8488828B48F6FF752A40CE
:102050004FF6FF452A400D8820E00000002C01408B
:102060000004004000080040000C00400010004048
:102070000014004000340140004C01400050014079
:102080000054014000180040001C004000200040A7
:102090000040014000440140004801404FF6FF76F7
:1020A00006EA05252A434DF6FF752B400D8906EA01
:1020B00005352B434D8806EA05352B43FA4DA842DA
:1020C00002D0FA4DA84208D14BF6FF752C408D89FD
:1020D0004FF6FF7606EA85152C4384808283CD88EF
:1020E000A0F84050038470BD828B4FF2FF331A403A
:1020F0008283828B4FF6FF7303EA01231A438283A4
:102100007047F0B50C461546002200210026078CCA
:102110004EF6FF7C07EA0C070784828B018C4FF692
:10212000FF7707EA043640F6FF473A404FF6FF775D
:1021300007EA05273A434FF6FF7707EA03373A43A2
:10214000D94FB8420ED0D94FB8420BD0B0F1804F22
:1021500008D0D74FB84205D0D64FB84202D0D64F9C
:10216000B84206D14DF6FF77394046F480573943DF
:1021700005E047F6FF57394044F4805739438283DE
:102180000184F0BD828B4FF6F3731A408283828BF9
:102190000A4382837047F0B50C46154600220021A1
:1021A0000026078C4FF6FF6C07EA0C070784828B2A
:1021B000018C4FF6FF7707EA04264FF60C773A407A
:1021C0004FF6FF7707EA03172F433A43B64FB8425B
:1021D0000ED0B64FB8420BD0B0F1804F08D0B44FFC
:1021E000B84205D0B34FB84202D0B34FB84206D17F
:1021F0004FF6FF57394046F48077394305E04FF2F8
:10220000FF57394044F48077394382830184F0BD1D
:10221000028B4FF2FF331A400283028B4FF6FF739B
:1022200003EA01231A4302837047F0B50C461546B2
:10223000002200210026078C4FF6EF7C07EA0C07EE
:102240000784028B018C4FF6FF7707EA041640F6ED
:10225000FF473A404FF6FF7707EA03373A434FF616
:10226000FF7707EA05273A438F4FB8420ED08F4FCA
:10227000B8420BD0B0F1804F08D08D4FB84205D096
:102280008C4FB84202D08C4FB84206D14FF6DF7760
:10229000394046F01007394305E04FF65F77394083
:1022A00044F01007394302830184F0BD028B4FF6DE
:1022B000F3731A400283028B0A4302837047F0B51E
:1022C0000C46154600220021068C4FF6FE773E4054
:1022D0000684028B018C4FF60C7632407E1C06EA97
:1022E00003162E433243704EB0420ED06F4EB042B2
:1022F0000BD0B0F1804F08D06D4EB04205D06D4E7E
:10230000B04202D06C4EB04206D14FF6FD7631405D
:1023100044F00106314305E04FF6F576314044F0D4
:102320000106314302830184F0BD70B505460C46B9
:102330005D4885420ED05D4885420BD0B5F1804F97
:1023400008D05B48854205D05A48854202D05A4899
:10235000854200D100E000BF208850B92389A288BF
:1023600061882846FFF7ABFFE1882846FFF79EFF0C
:1023700025E0208804280AD12389A288618828467C
:10238000FFF753FFE1882846FFF742FF17E0208858
:1023900008280AD12389A28861882846FFF7FBFE16
:1023A000E1882846FFF7EEFE09E02389A2886188CC
:1023B0002846FFF7A6FEE1882846FFF795FE70BD88
:1023C0002DE9F04105460C4600260127608808B932
:1023D000022600E00026A088012801D1022700E0A3
:1023E00001272088A0B92389A28861882846FFF7A1
:1023F00066FFE1882846FFF759FF23893A463146B0
:102400002846FFF712FFE1882846FFF701FF13E097
:102410002389A28861882846FFF707FFE1882846BC
:10242000FFF7F6FE23893A4631462846FFF747FF75
:10243000E1882846FFF73AFFBDE8F0810A884B881B
:102440001A438B881A43CB881A430B891A434B894A
:102450001A438B891A43A0F8442070474FF6FF7146
:10246000818000210180C18041800172704700217C
:10247000018041808180C180018141818181C18150
:102480007047002101804180012181800021C180AD
:10249000018170470021018041808180C1800181DC
:1024A0004181818170470000002C014000340140CF
:1024B0000004004000080040000C004021B10288E8
:1024C00042F00102028004E002884FF6FE731A40D7
:1024D0000280704731B1B0F8442042F40042A0F8C5
:1024E000442005E0B0F84420C2F30E02A0F84420D6
:1024F00070471AB183890B43838102E083898B4340
:10250000838170478182704741EA0203A0F8483016
:1025100070471AB183890B43838102E083898B431F
:102520008381704701894FF6F8721140018170472D
:102530000A46002101894FF68F731940114301812A
:10254000704730B504460D4629462046FFF7F0FF98
:10255000208940F00700208130BD2DE9F04104467C
:102560000D4616461F46602D06D13B4601223146D8
:102570002046FFF75AFE05E03B4601223146204641
:10258000FFF79DFE29462046FFF7D2FF208940F045
:1025900007002081BDE8F08130B50C46002101899B
:1025A000C9B24FF6FF7505EA0325154325432943B4
:1025B000018130BD2DE9F04105460E46174698468B
:1025C000002443463A4631462846FFF7E5FF2C896A
:1025D0004FF6F870044044F007044FF68F70044043
:1025E00044F070042C81BDE8F081F0B504460D463E
:1025F00016461F463B46324629462046FFF7CCFF8B
:10260000208940F480402081F0BD0185828270479E
:102610000A46002101884FF68F731940114301804B
:102620007047F0B50C4615461E46002100220023D7
:102630000189028B038C4FF6F877394021434FF61E
:10264000FC473A4040F201173A434FF6DD773B40F2
:102650004FF6FF7707EA06172F433B4301810283BA
:102660000384F0BD0A460021018B4FF68F73194099
:102670001143018370470A460021018B48F6FF731E
:1026800019404FF6FF7303EA022319430183704791
:102690000A460021818B4FF68F73194011438183C5
:1026A00070470A460021818B48F6FF7319404FF6A8
:1026B000FF7303EA022319438183704721B1028823
:1026C00042F08002028004E002884FF67F731A40D5
:1026D0000280704721B1828842F00402828004E0C7
:1026E00082884FF6FB731A408280704721B182883E
:1026F00042F00802828004E082884FF6F7731A40A5
:102700008280704721B1828842F00102828004E019
:1027100082884FF6FE731A40828070470A46002175
:10272000018B4FF6F77319401143018370470A4636
:102730000021018B4FF2FF7319404FF6FF7303EA3C
:1027400002231943018370470A460021818B4FF60B
:10275000F77319401143818370470A460021818B2A
:102760004FF2FF7319404FF6FF7303EA0223194338
:10277000818370470A460021018B4FF6FB73194095
:102780001143018370470A460021018B4FF6FF3346
:1027900019404FF6FF7303EA022319430183704780
:1027A0000A460021818B4FF6FB7319401143818348
:1027B00070470A460021818B4FF6FF3319404FF6D0
:1027C000FF7303EA02231943818370470A460021FD
:1027D000018B4FF67F7319401143018370470A46FE
:1027E0000021018BC1F30E014FF6FF7303EA0223B0
:1027F0001943018370470A460021818B4FF67F738E
:1028000019401143818370470A460021818BC1F32F
:102810000E014FF6FF7303EA0223194381837047C9
:102820000A460021018C4FF6FD73194011430184C3
:1028300070470A460021018C4FF6F7731940114387
:10284000018470470A460021018C4FF6DF7319405E
:102850004FF6FF7303EA02131943018470470A46D7
:102860000021018C4FF67F7319404FF6FF7303EA86
:1028700002131943018470470A460021018C4FF668
:10288000FF5319404FF6FF7303EA022319430184F3
:1028900070470A460021018C4FF2FF7319404FF632
:1028A000FF7303EA02231943018470470A4600219B
:1028B000018C4DF6FF7319404FF6FF7303EA0233A4
:1028C00019430184704730B5002301248C40A3B222
:1028D000048C9C430484048C02FA01F5ADB22C43B1
:1028E000048430BD30B5002304248C40A3B2048C92
:1028F0009C430484048C02FA01F5ADB22C43048499
:1029000030BD70B50346002000241846183001255C
:102910008D40ACB21D8CA5431D8409B1082909D195
:1029200000EB6100056825F070050560056815433A
:1029300005600EE00D1FC5F34E052844056825F41B
:10294000E045056005684FF6FF7606EA0226354346
:10295000056070BD21B1028842F00202028004E0ED
:1029600002884FF6FD731A400280704721B1028839
:1029700042F00402028004E002884FF6FB731A4022
:102980000280704721B1828842F08002828004E098
:1029900082884FF67F731A408280704702884FF614
:1029A000F7731A40028002880A43028070478288C7
:1029B0004FF68F731A40828082880A438280704764
:1029C00002894FF6F8731A40028102890A43028194
:1029D000704702894FF67F731A40028102890A43C9
:1029E0000281704781847047818570478186704776
:1029F0000187704781877047A0F8401070470288B0
:102A00004FF6FF431A40028002880A430280704753
:102A10000146888E70470146088F70470146888FAF
:102A200070470146B1F8400070470146888C7047F6
:102A30000146088D704702460020138A0B400BB1F7
:102A4000012000E000207047CA430282704730B581
:102A50000246002000230024158A05EA0103958917
:102A600005EA010413B10CB1012000E0002030BDE3
:102A7000CA4302827047000010B50446FB488442F6
:102A800009D101218803FFF79FF800214FF480400E
:102A9000FFF79AF832E0F648844209D10121480450
:102AA000FFF79FF800214FF40030FFF79AF825E078
:102AB000F048844209D101218804FFF792F80021EF
:102AC0004FF48020FFF78DF818E0EB48844209D1DD
:102AD0000121C804FFF785F800214FF40020FFF71B
:102AE00080F80BE0E548844208D101210805FFF792
:102AF00078F800214FF48010FFF773F810BD2DE92E
:102B0000F04786B005460E460024A24600BFA14607
:102B10000027B08900B100BF2F462C8A4CF6FF7009
:102B20000440F08804432C82AC894EF6F310044034
:102B3000B08831890843718908430443AC81AC8A69
:102B40004FF6FF400440B0890443AC8201A8FEF771
:102B5000B4FFC648874202D1DDF810A001E0DDF8DD
:102B60000CA0A88900F4004040B10AEBCA0000EBB9
:102B70000A1031684900B0FBF1F807E00AEBCA001F
:102B800000EB0A1031688900B0FBF1F86420B8FB53
:102B9000F0F004012009642101FB1089A88900F4E8
:102BA000004040B1322000EBC900B0FBF1F000F072
:102BB0000700044308E0322000EB09106421B0FB59
:102BC000F1F000F00F0004432C8106B0BDE8F0875F
:102BD0004FF41651016000218180C18001810C21D8
:102BE000418100218181704710B502460020108A82
:102BF0004FF2FF0318400B884C8823438C882343F3
:102C0000CC8823431843108210BD002101804180ED
:102C10008180C180704721B1828942F40052828153
:102C200004E082894DF6FF731A4082817047F0B547
:102C30000346002400260025002040F66A17B9420A
:102C400000D100BF1846C1F3421401F01F0601274E
:102C500007FA06F5012C01D10C3004E0022C01D159
:102C6000103000E014301AB107682F43076002E00B
:102C70000768AF430760F0BD1AB1838A0B438382B4
:102C800002E0838A8B4383827047028A4FF6F07397
:102C90001A400282028A0A430282704782894FF2F6
:102CA000FF731A40828182890A438281704721B171
:102CB000828942F00202828104E082894FF6FD732C
:102CC0001A4082817047028A4FF6DF731A400282EF
:102CD000028A0A430282704721B1028A42F480428A
:102CE000028204E0028A4BF6FF731A4002827047A8
:102CF000C1F308028280704701468888C0F308004B
:102D00007047818941F0010181817047028BD2B205
:102D10000283028B42EA012202837047028B02F493
:102D20007F420283028B0A430283704721B1828A69
:102D300042F02002828204E0828A4FF6DF731A405A
:102D40008282704721B1828A42F01002828204E0BE
:102D5000828A4FF6EF731A408282704721B1828ACD
:102D600042F00802828204E0828A4FF6F7731A402A
:102D70008282704721B1828942F40042828103E05D
:102D80008289C2F30E028281704721B1828A42F4A5
:102D90000062828204E0828A4FF2FF731A408282CC
:102DA0007047828A4FF6FB731A408282828A0A43F6
:102DB0008282704721B1828A42F00202828204E05C
:102DC000828A4FF6FD731A408282704702460020C5
:102DD000B1F5007F00D100BF13880B400BB101207B
:102DE00000E00020704701F40072B2F5007F00D1CE
:102DF00000BFCA430280704770B50246002400231A
:102E00000025002040F66A16B14200D100BFC1F390
:102E1000421501F01F03012606FA03F3012D02D12A
:102E20009689334006E0022D02D1168A334001E034
:102E3000968A33400C12012606FA04F416883440B0
:102E400013B10CB1012000E0002070BD10B50022CC
:102E5000002340F66A14A14200D100BF0A120124E7
:102E60009440A3B2DC43048010BD00000038014050
:102E70000044004000480040004C0040005000402A
:102E80000948804709480047FEE7FEE7FEE7FEE7FE
:102E9000FEE7FEE7FEE7FEE7FEE7FEE7044805493A
:102EA000054A064B70470000E1060008ED000008E7
:102EB0004002002040080020400400204004002080
:102EC00008B501210D20FEF765FE4FF40040ADF876
:102ED000000010208DF8030003208DF802006946E1
:102EE0001D48FEF77BFB4FF400411B48FEF723FC17
:102EF0000220ADF8000010208DF8030003208DF8AB
:102F0000020069461448FEF769FB01211348FEF7E9
:102F100036FC08BD08B501210C20FEF73BFE4FF43E
:102F20008070ADF8000010208DF8030003208DF8AC
:102F3000020069460848FEF751FB4FF48070ADF877
:102F4000000010208DF8030003208DF80200694670
:102F50000348FEF743FB08BD0008014000023000B3
:102F6000000C014070B505460C4645F25550FEF781
:102F700083FC2846FEF783FC2046FEF783FCFEF721
:102F800084FCFEF787FC70BD10B5FEF77EFC10BD1B
:102F90007FB505460C4601210220FEF708FEADF87C
:102FA0000850ADF804400020ADF80A00ADF8060066
:102FB00001A94D48FEF726FF012211464A48FFF7B6
:102FC00098FA1D208DF8000000208DF801000320E4
:102FD0008DF8020001208DF803006846FDF705FC1E
:102FE00000214148FFF76AFA7FBD7FB505460C46D0
:102FF00001210420FEF7DBFDADF80850ADF80440D8
:103000000020ADF80A00ADF8060001A93748FEF728
:10301000F9FE012211463548FFF76BFA1E208DF8A4
:10302000000003208DF801008DF8020001208DF8CA
:1030300003006846FDF7D9FB01212C48FFF73EFA53
:103040007FBD10B501212848FFF701FD2849096817
:10305000884215D001212448FFF70AFD2548007851
:10306000401C24490870084600781E2808DB002010
:10307000087001202049087000211B48FFF71EFA44
:1030800010BD10B501211948FFF7E1FC1849096886
:10309000884227D001211548FFF7EAFC174890F82D
:1030A0007200A8B116480078401C154908700846FF
:1030B00000780A2816DB002008700D481C300068D4
:1030C00008B9012000E0002009491C31086009E02E
:1030D00007481C30006808B9012000E000200449BE
:1030E0001C31086010BD00000004004000080040D2
:1030F000A00121422C0000202D000020A000002073
:103100002E00002010B586B0044601210C20FEF7E9
:1031100041FD01214804FEF74AFD6448FFF7ACFC7D
:103120000420ADF8140003208DF8160018208DF847
:10313000170005A95E48FEF751FA0820ADF8140003
:1031400004208DF8170005A95948FEF747FA082012
:10315000ADF8140003208DF8160010208DF817002C
:1031600005A95448FEF73AFA26208DF80000002001
:103170008DF8010001208DF802008DF803006846EB
:10318000FDF733FB01940020ADF80800ADF80A000C
:10319000ADF80C00ADF810000C20ADF80E0001A940
:1031A0004248FFF7ACFC012240F225513F48FFF7AF
:1031B0003EFD012240F224413C48FFF738FD012149
:1031C0003A48FFF728FD00203B49086006B010BDD3
:1031D00070B505460E4601203749086000240CE012
:1031E00000BF40213148FFF7F1FD0028F9D0295DEB
:1031F0002E48FFF77DFD601CC4B2B442F0DB00BF77
:1032000040212A48FFF7E2FD0028F9D000202B4991
:1032100008702949086070BD10B540F22551234857
:10322000FFF7EAFD002832D02048FFF765FDC4B261
:10323000422C05D100202149087001202049087046
:103240001F480078012822D11E481C49097844549F
:103250001A480078401C1949087008460078202850
:1032600015DB184840784D2811D11649487B00F0ED
:1032700046FC1449C87B00F042FC0020104908704D
:103280000E4908700F49087001200F49087040F27C
:1032900024410648FFF7B0FD30B10448FFF72CFD8C
:1032A000C4B201200849087010BD0000004400406D
:1032B00000080140000C01408C8121422F000020B9
:1032C00032000020600000203000002010B5CC4803
:1032D00000F0D8FC002404E00020C9490855601C17
:1032E000C4B2642CF8DB0020C6490870FFF74CFE1E
:1032F00010BD10B5C4A000F041FD4FF4967000F071
:10330000BAFBC3A1BE4800F0F3FDC2490860FFF755
:10331000DDFF0EE0FFF7DAFFBBA000F02FFD4FF45A
:10332000967000F0A8FBBAA1B54800F0E1FDB949DC
:103330000860B84800680028ECD0B7A000F01EFD77
:103340004FF4967000F097FBB6A1AD4800F0D0FDA9
:10335000B0490860FFF7BAFF0EE0FFF7B7FFAEA075
:1033600000F00CFD4FF4967000F085FBADA1A44871
:1033700000F0BEFDA7490860A64800680028ECD010
:10338000A9A000F0FBFC4FF4967000F074FBA0A124
:103390009B4800F0ADFD9F490860FFF797FFA6A08E
:1033A00000F0ECFC4FF4967000F065FBA5A194488A
:1033B00000F09EFD97490860FFF788FF0EE0FFF7D9
:1033C00085FF9DA000F0DAFC4FF4967000F053FBEF
:1033D0009CA18B4800F08CFD8E4908608D480068E8
:1033E0000028ECD09AA000F0C9FC4FF4967000F0D1
:1033F00042FB9AA1824800F07BFD8649086008469E
:103400000068002835D008460068007A303809681E
:10341000C979303901EB810100EB41009149087015
:1034200008460078632804D07A480068C0793038AC
:10343000D8B919E000208B4981F872008AA000F009
:1034400021FC01208F4908604FF4967000F013FBB7
:103450004FF4967000F00FFB00208B49C1F8A001DB
:103460004FF4967000F007FBE4E701207D4981F8F6
:10347000720010BD10B585A000F080FC4FF496706E
:1034800000F0F9FAFFF780FD10BD10B583A000F041
:1034900075FC4FF4967000F0EEFAFFF717FFFFF798
:1034A00073FD10BD10B581A000F068FC4FF496705C
:1034B00000F0E1FA8AA1524800F01AFD554908606F
:1034C00008E087A14E4800F013FD524908606420CF
:1034D00000F0D1FA4F4800680028F2D0FFF7F6FE5E
:1034E00010BD70B504460D462A46214680A000F066
:1034F00045FC70BD70B504460D462A46214682A0A3
:1035000000F03CFC4FF4967000F0B5FA08E084A19E
:103510003B4800F0EDFC3F490860642000F0ABFA46
:103520003C4800680028F2D0FFF7D0FE70BD10B50F
:103530007DA1334800F0DCFC36490860084600688D
:10354000002840D008460068007A464948704FF489
:10355000967000F090FA76A1294800F0C9FC2D4938
:103560000860002400BF2B480168601C085C2C2800
:1035700000D109E027480168601C095C3948001D3A
:103580000155601CC4B2EEE700BF69A12148006884
:10359000401C00F0ADFC1F490860002400BF1D481E
:1035A0000168601C085C0D2800D109E01948016819
:1035B000601C095C2B480E300155601CC4B2EEE75C
:1035C00000BFFFF783FE10BD10B55AA10C4800F0F4
:1035D0008FFC104908600846006808B1FFF776FEC6
:1035E00010BD10B555A1064800F082FC09490860DD
:1035F0000846006818B1FFF755FFFFF767FE10BDDA
:10360000130100205C00002041540D0A000000005E
:103610004F4B00003400002041542B43494D490DCD
:103620000A0000003436300041542B4347415454C3
:103630003D310D0A0000000041542B4347415454D2
:103640003F0D0A002B43474154543A2031000000FB
:1036500041542B434553510D0A0000002B43455361
:1036600051000000A0000020D0C5BAC5CBD1CBF7D7
:10367000CAA7B0DCA3ACC7EBB2E9BFB4D4ADD2F2F9
:10368000210D0A00A00121420000214241542B518A
:10369000534F434C3D300D0A0000000041542B5164
:1036A00049434C4F53453D300D0A000041542B51C6
:1036B000494F50454E3D312C302C22544350222C42
:1036C000223130332E34362E3132382E3431222C02
:1036D00032353434312C313233342C310D0A000080
:1036E0002B51494F50454E3A20302C3000000000FD
:1036F00041542B51534F53454E443D302C25732C90
:1037000025730D0A0000000041542B514953454ECA
:103710004445583D302C25732C25730D0A000000BC
:1037200053454E44204F4B002B51534F4E4D4900B3
:103730002C0000002B51495552433A00736F636BC4
:1037400065745F74206973204E554C4C0000000076
:1037500008B501210820FEF71DFAF820ADF8000099
:1037600003208DF8020010208DF8030069464748B9
:10377000FDF734FF08BD70B50546002413E00020B6
:1037800043490860012000F076F905FA04F0C0F31F
:10379000C0104049C1F8900101203D49086000F087
:1037A0006AF9601CC4B2082CE9DB70BD10B5044690
:1037B0000120374908390860F820FFF7DCFF04F0E2
:1037C000F000FFF7D8FFF02101EA0410FFF7D3FF64
:1037D00000203049C1F88C0110BD10B5044601200D
:1037E0002B4908390860FA20FFF7C5FF04F0F00004
:1037F000FFF7C1FFF02101EA0410FFF7BCFF002032
:103800002449C1F88C0110BD10B5FFF7A1FF0020BD
:103810001F49091D08601F49C1F89C01022000F0E2
:103820002AF901201A49083108603020FFF7BEFF4D
:103830000320FFF7BBFF0C20FFF7B8FF0120FFF7C5
:10384000B5FF0620FFF7B2FF012000F014F910BD0C
:1038500070B505462C4603E02078FFF7BEFF641CD8
:1038600020780028F8D170BD10B53020FFF79EFFFA
:103870008020FFF79BFF002404E02020FFF7ADFF2E
:10388000601CC4B2402CF8DB10BD0000000C0140ED
:10389000948121420080214200B591B00121084667
:1038A000FEF76BF901214FF40170FEF773F9102058
:1038B000ADF8400000208DF8430010A94748FDF7FF
:1038C0008DFE4748FDF722FA464800904648019091
:1038D00000200290012003900020049005904FF4F6
:1038E00080700690800007902020089000020990C8
:1038F00000200A9069463A48FDF7AAFA01213848A3
:10390000FDF7D1FA00200B908DF8300001208DF8E2
:1039100031004FF460200D9000200E9004208DF8AF
:103920003C000BA92F484C38FCF7EFFF4FF4404008
:10393000FEF794F80523012204212A484C38FDF7AC
:103940007CF8012127484C38FDF716F8012125485D
:103950004C38FDF706F823484C38FDF724F800BF33
:1039600020484C38FDF724F80028F9D11D484C3880
:10397000FDF728F800BF1B484C38FDF728F8002851
:10398000F9D1012117484C38FDF72BF811B000BDD3
:103990002DE9F0470220FDF7A1FA10B10220FDF752
:1039A000B1FA11480088114908800846008800F0E3
:1039B00047FD06464FF033320D4B00F055FD0446EF
:1039C00000220C4B00F0E4FB804600F0AFFB0A49FC
:1039D000086008460068BDE8F08700000008014064
:1039E000080002404C240140400000204A00002012
:1039F0003333F33F0000B0404C00002010B56FF0AF
:103A00000400FCF73CFF2E4800682E49B0FBF1F0A3
:103A10002D4908700846007800EB4001C1EBC0104A
:103A20004FF6FF7101EAC0002849088010BD014629
:103A3000254A12784A434FF0E0235A6100229A61E6
:103A40001A46126942F001021A6100BF4FF0E022EB
:103A5000106900F001021AB100F48032002AF5D09A
:103A60004FF0E022126922F001024FF0E0231A61C8
:103A700000229A6170470146144A12884A434FF067
:103A8000E0235A6100229A611A46126942F001024B
:103A90001A6100BF4FF0E022106900F001021AB174
:103AA00000F48032002AF5D04FF0E022126922F0B3
:103AB00001024FF0E0231A6100229A617047000072
:103AC0000400002000127A00500000205200002064
:103AD00010B54FF48060FCF783FE10BD7047000006
:103AE000014600BF704700BF994A128802F04002A9
:103AF000002AF9D0C2B2964B1B1D1A80704710B530
:103B0000044600BF80219348FFF760F90028F9D0F0
:103B100021469048FFF7ECF810BD10B5044600BFF1
:103B200080218D48FFF752F90028F9D021468A48B4
:103B3000FFF7DEF810BD10B586B00446012144F24F
:103B40000400FEF727F88348FEF796FF4FF4007055
:103B5000ADF8140003208DF8160018208DF817001A
:103B600005A97E48FDF73AFD4FF48060ADF81400DA
:103B700048208DF8170005A97848FDF72FFD25206E
:103B80008DF8000000208DF8010001208DF8020062
:103B90008DF803006846FCF728FE01940020ADF87C
:103BA0000800ADF80A00ADF80C00ADF810000C20CC
:103BB000ADF80E0001A96748FEF7A1FF012240F20F
:103BC00024416448FFF733F8012240F2255161484F
:103BD000FFF72DF801215F48FFF71DF806B010BD73
:103BE00010B586B0044601210820FDF7D3FF01215E
:103BF0008804FDF7DCFF5648FEF73EFF4FF4806077
:103C0000ADF8140003208DF8160018208DF8170069
:103C100005A95348FDF7E2FC4FF40060ADF814002D
:103C200004208DF8170005A94D48FDF7D7FC272083
:103C30008DF8000003208DF801008DF802000120AE
:103C40008DF803006846FCF7D0FD01940020ADF824
:103C50000800ADF80A00ADF80C00ADF810000C201B
:103C6000ADF80E0001A93A48FEF749FF012240F2E3
:103C700025513748FEF7DBFF01213548FEF7CBFF22
:103C800006B010BD0BE000BF3249098801F04001C9
:103C90000029F9D001782F4A121D1180401C0178AB
:103CA0000029F0D170470CE000BF2A4A128802F0C8
:103CB0008002002AF9D00278264B1B1D1A80401C76
:103CC000491E0029F0D1704710B540F22551214816
:103CD000FFF792F878B11F48FFF70EF8C4B21D48FD
:103CE000FFF70AF8C1B21F4802780078401C1D4B4C
:103CF00018701D48815440F224411648FFF77CF8A3
:103D000030B11448FEF7F8FFC4B20120174908701B
:103D100010BD10B540F225510D48FFF76DF8B0B158
:103D20000B48FEF7E9FFC4B20948FEF7E5FFC1B250
:103D30000F4802780078401C0D4B18700D488154D4
:103D400018460078632802DD00201946087010BD6F
:103D50000048004000380140004400400008014095
:103D6000000C01405D00002077010020540000207D
:103D70005C00002013010020704700000FB40449CC
:103D800010B503AA029800F089F910BC5DF814FB85
:103D9000580000200FB41CB5074B06AA7B446946A7
:103DA0000090059800F04BF90020694600F05AF9A0
:103DB0001CBC5DF814FB0000C50200002DE9F041B9
:103DC0000E460446002020622046E168884730B352
:103DD000252805D0D4E901219047206A401CF2E74C
:103DE000E168204600278847050018D0A5F141006A
:103DF000192802D820354FF400673246294620465C
:103E00002760FCF7ADF940B1012804D0F61D26F07B
:103E100007060836D8E7361DD6E72846DAE7206ACF
:103E2000BDE8F08170B50C460546012A05D028781A
:103E3000800600D5EA69002302E0012305E05B1C4F
:103E4000934202D2E05C0028F9D1A869E618C01AB2
:103E5000A861286A184428622846AFF3008004E06D
:103E6000D5E9012114F8010B9047B442F8D3284654
:103E7000AFF3008070BD00002DE9F041064600243C
:103E800010687529314616A510D0AFF300800028C0
:103E900002DA404213A507E031688A0701D512A56E
:103EA00002E0490704D511A5012401E0AFF3008029
:103EB00000210A2206F1240709E0B0FBF2FCB0FB66
:103EC000F2F302FB1C00303078541846491C0028DD
:103ED000F3D123462A463046BDE8F04100F050B801
:103EE000000000002D0000002B000000200000005A
:103EF00030B505460B462A4613F8014B12F8010B64
:103F000008B1A042F8D01CB1002802D06D1CF1E726
:103F1000284630BD10B5203AC0F00B80B1E81850EB
:103F2000203AA0E81850B1E81850A0E81850BFF4A3
:103F3000F5AF5FEA027C24BFB1E81850A0E8185042
:103F400044BF18C918C0BDE810405FEA827C24BF96
:103F500051F8043B40F8043B08BF7047D20728BF24
:103F600031F8023B48BF11F8012B28BF20F8023B73
:103F700048BF00F8012B7047704770477047704783
:103F80002DE9F0470D4699469246044600F1240873
:103F90000168880604D5E06921F01001216000E085
:103FA0000120A84201DD471B00E00027A1697A1922
:103FB00002EB0900081AA0612078C00602D420464E
:103FC000AFF30080002608E0D4E901211AF80600CA
:103FD0009047206A401C761C20624E45F4DB207816
:103FE000C0060AD52046AFF3008006E0D4E90121DF
:103FF00030209047206A401C2062381EA7F101073C
:10400000F4DC07E0D4E9012118F805009047206AA4
:10401000401C2062281EA5F10105F3DC2046AFF309
:1040200000802078000602D50220BDE8F08701203C
:10403000FBE7000001694A1C02610878704700B57F
:104040008FB0CDE901310021059105497944CDE9D1
:10405000031011466846FFF7B1FE0FB000BD000027
:10406000E5FFFFFF0A6802F8010B0A60704710B510
:10407000436913B1AFF3008001E0FFF7D3FE0120E5
:1040800010BD127800F124010A7000224A7001224A
:10409000EDE711684FF0FF32E9E70000074B70B51C
:1040A0000D467B44FFF7CBFF0446284600F008F896
:1040B00010B14FF0FF3070BD204670BD41FAFFFFD8
:1040C000007B00F080007047754600F02BF8AE468C
:1040D00005006946534620F00700854618B020B514
:1040E000FEF7DCFEBDE820404FF000064FF0000771
:1040F0004FF000084FF0000B21F00701AC46ACE890
:10410000C009ACE8C009ACE8C009ACE8C0098D46FC
:10411000704710B50446AFF300802046BDE810405C
:10412000FCF733B800487047DC01002021F0004262
:10413000A2F16052B2F5801F01F0004328BFD2F116
:104140007F6C0BD95FEA001C43EAC20242EB50705D
:1041500018BF704728BF20F001007047B2F5801FDC
:10416000BCBF184670474FEA410C1CF5001F02D235
:10417000084600F05EBB70B500F020FA0000008930
:10418000FFF7F6BF4FF00040A0F580007047000039
:104190002DE9C04130B4DFF8A0C23CEA111418BFC9
:1041A0003CEA131400F0EC8081EA03051CEA1114C8
:1041B00044EAD57418BF1CEA131500F0C780A4EBBD
:1041C00005044FF0004545EAC12145EAC32341EA11
:1041D000505143EA525304F17F74994204F500347C
:1041E0004FEAC0204FEAC22208BF904200F09C80F4
:1041F0004FEA13650FF24016765D4FEA134506FB52
:1042000005F7C7F1807706FB07F74FEAD737A7FB1B
:1042100003687642C8F58038A7FB06CE38BFA8F100
:10422000010807FB08E64FF0000EA6FB028CE6FB38
:1042300003CEDCF1000CCEF1004E38BFAEF1010E22
:10424000A6FB0C584FF000074FF00005E6FB0E8769
:10425000A1FB08C6A0FB07CE16EB0E0645F1000534
:10426000E1FB076515F1E04E7EBFA4F580345FEAFF
:1042700046066D4116F1800745F100054FEA172704
:104280004FEA066647EA0567A6F1DE46B6F1805FAB
:104290004FEA15251FD9384624F0010C05EBC471EF
:1042A000BCF1FE6F01EB0C1102D8F0BCBDE800813F
:1042B00024425CBF01F5801E9EEAC47F02D4F0BC9C
:1042C000BDE80081244238D4F0BCA1F1C041BDE872
:1042D000004100F0C1B94FEAD22242EA43524FEA0C
:1042E000D323A7FB02864FEAD02040EA415007FBC8
:1042F00003661EEA0E0F4FEAD12105FB026658BF86
:10430000A6EB0056B6EB00564FEA520E4EEAC37EBD
:1043100018EB0E0E56EB530EBDD518EB02085E419E
:104320007F1C55F10005B6E74FF480154FF00007EC
:104330004FF000064FF00008ADE7F0BC4FF0000072
:1043400001F1C04101F00041BDE8008111EA0C1FFC
:104350000CEA131500D00CE013EA0C1F00F02580C6
:104360004FF00000F0BC81EA030101F00041BDE81C
:104370000081F0BCBDE8004181EA030100F06CB9A6
:10438000F0BCBDE8004170B500F018F9097EFC3EB4
:1043900000F007B881EA03014FF0000001F000418E
:1043A000704781EA030100F057B9F0BCBDE8004155
:1043B0004FF0000021497047FFFDFBF9F7F5F4F2DB
:1043C000F0EEEDEBE9E8E6E4E3E1E0DEDDDBDAD8B0
:1043D000D7D5D4D3D1D0CFCDCCCBCAC8C7C6C5C40E
:1043E000C2C1C0BFBEBDBCBBBAB9B8B7B6B5B4B325
:1043F000B2B1B0AFAEADACABAAA9A8A8A7A6A5A410
:10440000A3A3A2A1A09F9F9E9D9C9C9B9A999998D3
:104410009797969595949393929191908F8F8E8E76
:104420008D8C8C8B8B8A8989888887878685858403
:1044300084838382828181800000FF070000F87FEF
:10444000B0FA80F310FA03F10AD0C3F11D0303F5AB
:1044500080634FEA41504FEA035202EBD12170478B
:104460004FF0000070470000DFF848C170B51CEA4B
:10447000111E1EBF1CEA13159EEA0C0F95EA0C0FC5
:1044800000F06F8081EA030423EA4C134EEAD47EE5
:1044900021EA4C1141F4801143F48013AE44A1FB96
:1044A000024CA0FB0365AEF17F7E361955EB0C057F
:1044B000A1FB034C4CF10003A0FB021C16EB0C0605
:1044C000654153F10003094218BF46F0010613F499
:1044D000007F0BD14FEA03314FEA0530340341EA44
:1044E000155140EA16506FF003020AE04FEAC3216B
:1044F0004FEAC520F40241EA555140EA56506FF0A8
:10450000020202EB2E4201EB025585EACE710AD07F
:104510005FEA440C18BF24F0004450F1000041F160
:10452000000120EAD47040F2FE7C624500D270BDEA
:10453000A84214BF4FF080444FF04044002E08BF03
:104540000024BEF1806FA8BFA1F1C041BDE870405A
:1045500080F282804FF0000001F1C04101F0004183
:1045600070479EEA0C0F0CEA131518BF95EA0C0F62
:1045700006D04FF0000081EA030E0EF0004170BD3E
:1045800000F01CF88900013E00F007B800F009B8FF
:104590004FEA430C5FEA5C5C08D081EA030100F05B
:1045A0005BB84FEA410C5FEA5C5CF6D14FF000006B
:1045B000014970470000FF070000F87F0EF1020E6E
:1045C0002EF0030E5EF8046B364205D4012A43EB4D
:1045D000030515F5001F12D8012841EB010C1CF54D
:1045E000001F0CD80ED14FEAD17C15F5001F0CEB43
:1045F0004C0C0CF1020C08BF4CEBD37C04E04FF0E8
:10460000080C01E04FEAD37C0CEB4C0526FA05F6CA
:1046100006F00706B6F1040C06D20EEB860CBDE8D8
:1046200070404CF0010C6047DFE80CF0090B02020F
:104630004FF000414FF00000A1F5002170BD194678
:104640001046012851EB010418BFD4F5001484BFB3
:10465000002001F0004170BD0808A0F500114FEAEC
:1046600031017047C10DD1F19E0206DB4FEA0023F4
:1046700043F0004323FA02F07047004207D54FEAA7
:104680004001B1F1FE4F02D24FF00000704710B56B
:1046900000F089F849922480002070476FEA2000DA
:1046A000704700004FF47F0C1CEAD0121EBF1CEABA
:1046B000D11392EA0C0F93EA0C0F00F0478090EAB6
:1046C000010F48BF42F480724FF0004C4CEA0020CA
:1046D0004CEA012102EB0302A0FB0113A2F5000248
:1046E000002918BF43F001035B0028BF4FEA3303E2
:1046F00042EB22425FEA132C4CEBC2502EBFBCEBC4
:10470000436FB2F57C0F70474FEA036CBCF1004F6A
:1047100008BF20F00100B2F57C0F38BF70470BD501
:1047200082F0FF0212F5803FC8BF704700F1C04021
:10473000D8BF00F00040704700F5000C5FEA4C0C59
:1047400048BF7047B0F1C04000F073B890EA010F65
:104750000CEAD11348BF42F48072624538BF63450A
:1047600004D280EA010000F00040704710B500F06C
:104770001AF800BF8900013E00F007B800F009B840
:104780005FEA410C5FEA1C6C08D080EA010000F08F
:1047900050B85FEA400C5FEA1C6CF6D14FF0004065
:1047A000A0F5800070470EF1020E2EF0030E5EF8A9
:1047B000044B244204D44FEA4102B2F17F4F11D896
:1047C0004FEA4003B3F17F4F0CD80ED14FEAD07CB3
:1047D000B2F17F4F0CEB4C0C0CF1020C08BF4CEB10
:1047E000D17C04E04FF0080C01E04FEAD17C0CEBE7
:1047F0004C0324FA03F404F00704B4F1040C06D2C9
:104800000EEB840CBDE810404CF0010C6047DFE873
:104810000CF0070802024FF00040A0F5800010BD28
:104820000846420018BFD2F1807288BF00F00040F5
:1048300010BDFF2141EAD050C005704701000000C3
:104840000000000064480008000000206000000034
:1048500028010008C448000860000020E0070000AC
:10486000440100080000000000A24A04000000000B
:104870000000000001020304060708090000000010
:1048800001020304010203040607080902040608E2
:104890000000000000000000000000000000000018
:1048A0000000000000000000000000000000000008
:1048B00000000000000000000000000000000000F8
:0448C00000000000F4
:04000005080000ED02
:00000001FF
